101002100002100000000002204111831A094101UNITED STATES TRUST COMCOMERCIALIZADORA AGROINDUSTRIA E INSUMOS         
5225COMERCIALIZADORA000000000007707178950000000000CDDT11       APR 11         1021000020000001 
632         1234556677777776800000080001              COMERCIALIZADORA AGROI  1021000020000001 
705TST CHASET11                                                                    00010000001 
82200000002          0000000000000000000080000000000000                         021000020000002 
910000010000002@@@@@@@@@@000000000000Prueba4.00000000000000  