101002100002100000000002204111636A094101UNITED STATES TRUST COMCOMERCIALIZADORA AGROINDUSTRIA E INSUMOS         
5225COMERCIALIZADORA000000000007707178950000000000CDDT3        APR 110412   1021000020000001 
632         1234556677777776800000015001              COMERCIALIZADORA AGROI  1021000020000001 