101002100002100000000002204111652A094101UNITED STATES TRUST COMCOMERCIALIZADORA AGROINDUSTRIA E INSUMOS         
5225COMERCIALIZADORA000000000007707178950000000000CDDT4        APR 11220412   1021000020000001 
632         1234556677777776800000030001              COMERCIALIZADORA AGROI  1021000020000001 
Prueba05Chase TSTT4                                                                     00010000001 