101002100002100000000002204111559A094101UNITED STATES TRUST COMCOMERCIALIZADORA AGROINDUSTRIA E INSUMOS         
5225COMERCIALIZADORA000000000007707178950000000000CDDT2        APR 112022-04-12   1021000020000001 
632         123455667777777680000020.001              COMERCIALIZADORA AGROI  1021000020000001 